{
  "_format": "hh-sol-artifact-1",
  "contractName": "Ainft",
  "sourceName": "contracts/Ainft.sol",
  "abi": [
    {
      "inputs": [],
      "stateMutability": "nonpayable",
      "type": "constructor"
    },
    {
      "anonymous": false,
      "inputs": [
        {
          "indexed": true,
          "internalType": "address",
          "name": "owner",
          "type": "address"
        },
        {
          "indexed": true,
          "internalType": "address",
          "name": "approved",
          "type": "address"
        },
        {
          "indexed": true,
          "internalType": "uint256",
          "name": "tokenId",
          "type": "uint256"
        }
      ],
      "name": "Approval",
      "type": "event"
    },
    {
      "anonymous": false,
      "inputs": [
        {
          "indexed": true,
          "internalType": "address",
          "name": "owner",
          "type": "address"
        },
        {
          "indexed": true,
          "internalType": "address",
          "name": "operator",
          "type": "address"
        },
        {
          "indexed": false,
          "internalType": "bool",
          "name": "approved",
          "type": "bool"
        }
      ],
      "name": "ApprovalForAll",
      "type": "event"
    },
    {
      "anonymous": false,
      "inputs": [
        {
          "indexed": false,
          "internalType": "uint256",
          "name": "_fromTokenId",
          "type": "uint256"
        },
        {
          "indexed": false,
          "internalType": "uint256",
          "name": "_toTokenId",
          "type": "uint256"
        }
      ],
      "name": "BatchMetadataUpdate",
      "type": "event"
    },
    {
      "anonymous": false,
      "inputs": [
        {
          "indexed": false,
          "internalType": "uint256",
          "name": "_tokenId",
          "type": "uint256"
        }
      ],
      "name": "MetadataUpdate",
      "type": "event"
    },
    {
      "anonymous": false,
      "inputs": [
        {
          "indexed": true,
          "internalType": "address",
          "name": "previousOwner",
          "type": "address"
        },
        {
          "indexed": true,
          "internalType": "address",
          "name": "newOwner",
          "type": "address"
        }
      ],
      "name": "OwnershipTransferred",
      "type": "event"
    },
    {
      "anonymous": false,
      "inputs": [
        {
          "indexed": true,
          "internalType": "address",
          "name": "from",
          "type": "address"
        },
        {
          "indexed": true,
          "internalType": "address",
          "name": "to",
          "type": "address"
        },
        {
          "indexed": true,
          "internalType": "uint256",
          "name": "tokenId",
          "type": "uint256"
        }
      ],
      "name": "Transfer",
      "type": "event"
    },
    {
      "inputs": [
        {
          "internalType": "address",
          "name": "to",
          "type": "address"
        },
        {
          "internalType": "uint256",
          "name": "tokenId",
          "type": "uint256"
        }
      ],
      "name": "approve",
      "outputs": [],
      "stateMutability": "nonpayable",
      "type": "function"
    },
    {
      "inputs": [
        {
          "internalType": "address",
          "name": "owner",
          "type": "address"
        }
      ],
      "name": "balanceOf",
      "outputs": [
        {
          "internalType": "uint256",
          "name": "",
          "type": "uint256"
        }
      ],
      "stateMutability": "view",
      "type": "function"
    },
    {
      "inputs": [
        {
          "internalType": "string",
          "name": "tokenURI",
          "type": "string"
        }
      ],
      "name": "createNFT",
      "outputs": [
        {
          "internalType": "uint256",
          "name": "",
          "type": "uint256"
        }
      ],
      "stateMutability": "nonpayable",
      "type": "function"
    },
    {
      "inputs": [
        {
          "internalType": "uint256",
          "name": "tokenId",
          "type": "uint256"
        }
      ],
      "name": "getApproved",
      "outputs": [
        {
          "internalType": "address",
          "name": "",
          "type": "address"
        }
      ],
      "stateMutability": "view",
      "type": "function"
    },
    {
      "inputs": [
        {
          "internalType": "address",
          "name": "owner",
          "type": "address"
        },
        {
          "internalType": "address",
          "name": "operator",
          "type": "address"
        }
      ],
      "name": "isApprovedForAll",
      "outputs": [
        {
          "internalType": "bool",
          "name": "",
          "type": "bool"
        }
      ],
      "stateMutability": "view",
      "type": "function"
    },
    {
      "inputs": [],
      "name": "name",
      "outputs": [
        {
          "internalType": "string",
          "name": "",
          "type": "string"
        }
      ],
      "stateMutability": "view",
      "type": "function"
    },
    {
      "inputs": [],
      "name": "owner",
      "outputs": [
        {
          "internalType": "address",
          "name": "",
          "type": "address"
        }
      ],
      "stateMutability": "view",
      "type": "function"
    },
    {
      "inputs": [
        {
          "internalType": "uint256",
          "name": "tokenId",
          "type": "uint256"
        }
      ],
      "name": "ownerOf",
      "outputs": [
        {
          "internalType": "address",
          "name": "",
          "type": "address"
        }
      ],
      "stateMutability": "view",
      "type": "function"
    },
    {
      "inputs": [],
      "name": "renounceOwnership",
      "outputs": [],
      "stateMutability": "nonpayable",
      "type": "function"
    },
    {
      "inputs": [
        {
          "internalType": "address",
          "name": "from",
          "type": "address"
        },
        {
          "internalType": "address",
          "name": "to",
          "type": "address"
        },
        {
          "internalType": "uint256",
          "name": "tokenId",
          "type": "uint256"
        }
      ],
      "name": "safeTransferFrom",
      "outputs": [],
      "stateMutability": "nonpayable",
      "type": "function"
    },
    {
      "inputs": [
        {
          "internalType": "address",
          "name": "from",
          "type": "address"
        },
        {
          "internalType": "address",
          "name": "to",
          "type": "address"
        },
        {
          "internalType": "uint256",
          "name": "tokenId",
          "type": "uint256"
        },
        {
          "internalType": "bytes",
          "name": "data",
          "type": "bytes"
        }
      ],
      "name": "safeTransferFrom",
      "outputs": [],
      "stateMutability": "nonpayable",
      "type": "function"
    },
    {
      "inputs": [
        {
          "internalType": "address",
          "name": "operator",
          "type": "address"
        },
        {
          "internalType": "bool",
          "name": "approved",
          "type": "bool"
        }
      ],
      "name": "setApprovalForAll",
      "outputs": [],
      "stateMutability": "nonpayable",
      "type": "function"
    },
    {
      "inputs": [
        {
          "internalType": "bytes4",
          "name": "interfaceId",
          "type": "bytes4"
        }
      ],
      "name": "supportsInterface",
      "outputs": [
        {
          "internalType": "bool",
          "name": "",
          "type": "bool"
        }
      ],
      "stateMutability": "view",
      "type": "function"
    },
    {
      "inputs": [],
      "name": "symbol",
      "outputs": [
        {
          "internalType": "string",
          "name": "",
          "type": "string"
        }
      ],
      "stateMutability": "view",
      "type": "function"
    },
    {
      "inputs": [],
      "name": "tokenCounter",
      "outputs": [
        {
          "internalType": "uint256",
          "name": "",
          "type": "uint256"
        }
      ],
      "stateMutability": "view",
      "type": "function"
    },
    {
      "inputs": [
        {
          "internalType": "uint256",
          "name": "tokenId",
          "type": "uint256"
        }
      ],
      "name": "tokenURI",
      "outputs": [
        {
          "internalType": "string",
          "name": "",
          "type": "string"
        }
      ],
      "stateMutability": "view",
      "type": "function"
    },
    {
      "inputs": [
        {
          "internalType": "address",
          "name": "from",
          "type": "address"
        },
        {
          "internalType": "address",
          "name": "to",
          "type": "address"
        },
        {
          "internalType": "uint256",
          "name": "tokenId",
          "type": "uint256"
        }
      ],
      "name": "transferFrom",
      "outputs": [],
      "stateMutability": "nonpayable",
      "type": "function"
    },
    {
      "inputs": [
        {
          "internalType": "address",
          "name": "newOwner",
          "type": "address"
        }
      ],
      "name": "transferOwnership",
      "outputs": [],
      "stateMutability": "nonpayable",
      "type": "function"
    }
  ],
  "bytecode": "0x60806040523480156200001157600080fd5b50604080518082018252600580825264105253919560da1b6020808401828152855180870190965292855284015281519192916200005291600091620000e6565b50805162000068906001906020840190620000e6565b505050620000856200007f6200009060201b60201c565b62000094565b6000600855620001c9565b3390565b600780546001600160a01b038381166001600160a01b0319831681179093556040519116919082907f8be0079c531659141344cd1fd0a4f28419497f9722a3daafe3b4186f6b6457e090600090a35050565b828054620000f4906200018c565b90600052602060002090601f01602090048101928262000118576000855562000163565b82601f106200013357805160ff191683800117855562000163565b8280016001018555821562000163579182015b828111156200016357825182559160200191906001019062000146565b506200017192915062000175565b5090565b5b8082111562000171576000815560010162000176565b600281046001821680620001a157607f821691505b60208210811415620001c357634e487b7160e01b600052602260045260246000fd5b50919050565b6118a180620001d96000396000f3fe608060405234801561001057600080fd5b50600436106101165760003560e01c80638da5cb5b116100a2578063c87b56dd11610071578063c87b56dd14610225578063d082e38114610238578063da2ed03e14610240578063e985e9c514610253578063f2fde38b1461026657610116565b80638da5cb5b146101ef57806395d89b41146101f7578063a22cb465146101ff578063b88d4fde1461021257610116565b806323b872dd116100e957806323b872dd1461018e57806342842e0e146101a15780636352211e146101b457806370a08231146101c7578063715018a6146101e757610116565b806301ffc9a71461011b57806306fdde0314610144578063081812fc14610159578063095ea7b314610179575b600080fd5b61012e610129366004611296565b610279565b60405161013b91906113d8565b60405180910390f35b61014c6102a6565b60405161013b91906113e3565b61016c610167366004611314565b610338565b60405161013b9190611387565b61018c61018736600461126d565b61035f565b005b61018c61019c36600461117f565b610400565b61018c6101af36600461117f565b610438565b61016c6101c2366004611314565b610453565b6101da6101d5366004611133565b610487565b60405161013b91906117a8565b61018c6104cb565b61016c6104df565b61014c6104ee565b61018c61020d366004611233565b6104fd565b61018c6102203660046111ba565b610513565b61014c610233366004611314565b610552565b6101da610657565b6101da61024e3660046112ce565b61065d565b61012e61026136600461114d565b610693565b61018c610274366004611133565b6106c1565b60006001600160e01b03198216632483248360e11b148061029e575061029e826106fb565b90505b919050565b6060600080546102b5906117dd565b80601f01602080910402602001604051908101604052809291908181526020018280546102e1906117dd565b801561032e5780601f106103035761010080835404028352916020019161032e565b820191906000526020600020905b81548152906001019060200180831161031157829003601f168201915b5050505050905090565b60006103438261073b565b506000908152600460205260409020546001600160a01b031690565b600061036a82610453565b9050806001600160a01b0316836001600160a01b031614156103a75760405162461bcd60e51b815260040161039e9061170a565b60405180910390fd5b806001600160a01b03166103b9610760565b6001600160a01b031614806103d557506103d581610261610760565b6103f15760405162461bcd60e51b815260040161039e9061174b565b6103fb8383610764565b505050565b61041161040b610760565b826107d2565b61042d5760405162461bcd60e51b815260040161039e906113f6565b6103fb838383610830565b6103fb83838360405180602001604052806000815250610513565b60008061045f8361096d565b90506001600160a01b03811661029e5760405162461bcd60e51b815260040161039e906116d3565b60006001600160a01b0382166104af5760405162461bcd60e51b815260040161039e906115d2565b506001600160a01b031660009081526003602052604090205490565b6104d3610988565b6104dd60006109c7565b565b6007546001600160a01b031690565b6060600180546102b5906117dd565b61050f610508610760565b8383610a19565b5050565b61052461051e610760565b836107d2565b6105405760405162461bcd60e51b815260040161039e906113f6565b61054c84848484610abc565b50505050565b606061055d8261073b565b60008281526006602052604081208054610576906117dd565b80601f01602080910402602001604051908101604052809291908181526020018280546105a2906117dd565b80156105ef5780601f106105c4576101008083540402835291602001916105ef565b820191906000526020600020905b8154815290600101906020018083116105d257829003601f168201915b505050505090506000610600610aef565b9050805160001415610614575090506102a1565b81511561064657808260405160200161062e929190611358565b604051602081830303815290604052925050506102a1565b61064f84610b01565b949350505050565b60085481565b60085460009061066d3382610b68565b6106778184610b82565b6008805490600061068783611818565b90915550909392505050565b6001600160a01b03918216600090815260056020908152604080832093909416825291909152205460ff1690565b6106c9610988565b6001600160a01b0381166106ef5760405162461bcd60e51b815260040161039e90611495565b6106f8816109c7565b50565b60006001600160e01b031982166380ac58cd60e01b148061072c57506001600160e01b03198216635b5e139f60e01b145b8061029e575061029e82610c02565b61074481610c1b565b6106f85760405162461bcd60e51b815260040161039e906116d3565b3390565b600081815260046020526040902080546001600160a01b0319166001600160a01b038416908117909155819061079982610453565b6001600160a01b03167f8c5be1e5ebec7d5bd14f71427d1e84f3dd0314c0f7b2291e5b200ac8c7c3b92560405160405180910390a45050565b6000806107de83610453565b9050806001600160a01b0316846001600160a01b0316148061080557506108058185610693565b8061064f5750836001600160a01b031661081e84610338565b6001600160a01b031614949350505050565b826001600160a01b031661084382610453565b6001600160a01b0316146108695760405162461bcd60e51b815260040161039e906114db565b6001600160a01b03821661088f5760405162461bcd60e51b815260040161039e90611557565b61089c838383600161054c565b826001600160a01b03166108af82610453565b6001600160a01b0316146108d55760405162461bcd60e51b815260040161039e906114db565b600081815260046020908152604080832080546001600160a01b03199081169091556001600160a01b0387811680865260038552838620805460001901905590871680865283862080546001019055868652600290945282852080549092168417909155905184937fddf252ad1be2c89b69c2b068fc378daa952ba7f163c4a11628f55a4df523b3ef91a46103fb838383600161054c565b6000908152600260205260409020546001600160a01b031690565b610990610760565b6001600160a01b03166109a16104df565b6001600160a01b0316146104dd5760405162461bcd60e51b815260040161039e9061169e565b600780546001600160a01b038381166001600160a01b0319831681179093556040519116919082907f8be0079c531659141344cd1fd0a4f28419497f9722a3daafe3b4186f6b6457e090600090a35050565b816001600160a01b0316836001600160a01b03161415610a4b5760405162461bcd60e51b815260040161039e9061159b565b6001600160a01b0383811660008181526005602090815260408083209487168084529490915290819020805460ff1916851515179055517f17307eab39ab6107e8899845ad3d59bd9653f200f220920489ca2b5937696c3190610aaf9085906113d8565b60405180910390a3505050565b610ac7848484610830565b610ad384848484610c38565b61054c5760405162461bcd60e51b815260040161039e90611443565b60408051602081019091526000815290565b6060610b0c8261073b565b6000610b16610aef565b90506000815111610b365760405180602001604052806000815250610b61565b80610b4084610d53565b604051602001610b51929190611358565b6040516020818303038152906040525b9392505050565b61050f828260405180602001604052806000815250610dfe565b610b8b82610c1b565b610ba75760405162461bcd60e51b815260040161039e9061161b565b60008281526006602090815260409091208251610bc69284019061100d565b507ff8e1a15aba9398e019f0b49df1a4fde98ee17ae345cb5f6b5e2c27f5033e8ce782604051610bf691906117a8565b60405180910390a15050565b6001600160e01b031981166301ffc9a760e01b14919050565b600080610c278361096d565b6001600160a01b0316141592915050565b6000610c4c846001600160a01b0316610e31565b15610d4857836001600160a01b031663150b7a02610c68610760565b8786866040518563ffffffff1660e01b8152600401610c8a949392919061139b565b602060405180830381600087803b158015610ca457600080fd5b505af1925050508015610cd4575060408051601f3d908101601f19168201909252610cd1918101906112b2565b60015b610d2e573d808015610d02576040519150601f19603f3d011682016040523d82523d6000602084013e610d07565b606091505b508051610d265760405162461bcd60e51b815260040161039e90611443565b805181602001fd5b6001600160e01b031916630a85bd0160e11b14905061064f565b506001949350505050565b60606000610d6083610e40565b600101905060008167ffffffffffffffff811115610d8e57634e487b7160e01b600052604160045260246000fd5b6040519080825280601f01601f191660200182016040528015610db8576020820181803683370190505b5090508181016020015b600019016f181899199a1a9b1b9c1cb0b131b232b360811b600a86061a8153600a8504945084610df157610df6565b610dc2565b509392505050565b610e088383610f18565b610e156000848484610c38565b6103fb5760405162461bcd60e51b815260040161039e90611443565b6001600160a01b03163b151590565b60008072184f03e93ff9f4daa797ed6e38ed64bf6a1f0160401b8310610e7f5772184f03e93ff9f4daa797ed6e38ed64bf6a1f0160401b830492506040015b6d04ee2d6d415b85acef81000000008310610eab576d04ee2d6d415b85acef8100000000830492506020015b662386f26fc100008310610ec957662386f26fc10000830492506010015b6305f5e1008310610ee1576305f5e100830492506008015b6127108310610ef557612710830492506004015b60648310610f07576064830492506002015b600a831061029e5760010192915050565b6001600160a01b038216610f3e5760405162461bcd60e51b815260040161039e90611669565b610f4781610c1b565b15610f645760405162461bcd60e51b815260040161039e90611520565b610f7260008383600161054c565b610f7b81610c1b565b15610f985760405162461bcd60e51b815260040161039e90611520565b6001600160a01b038216600081815260036020908152604080832080546001019055848352600290915280822080546001600160a01b0319168417905551839291907fddf252ad1be2c89b69c2b068fc378daa952ba7f163c4a11628f55a4df523b3ef908290a461050f60008383600161054c565b828054611019906117dd565b90600052602060002090601f01602090048101928261103b5760008555611081565b82601f1061105457805160ff1916838001178555611081565b82800160010185558215611081579182015b82811115611081578251825591602001919060010190611066565b5061108d929150611091565b5090565b5b8082111561108d5760008155600101611092565b600067ffffffffffffffff808411156110c1576110c161183f565b604051601f8501601f19908116603f011681019082821181831017156110e9576110e961183f565b8160405280935085815286868601111561110257600080fd5b858560208301376000602087830101525050509392505050565b80356001600160a01b03811681146102a157600080fd5b600060208284031215611144578081fd5b610b618261111c565b6000806040838503121561115f578081fd5b6111688361111c565b91506111766020840161111c565b90509250929050565b600080600060608486031215611193578081fd5b61119c8461111c565b92506111aa6020850161111c565b9150604084013590509250925092565b600080600080608085870312156111cf578081fd5b6111d88561111c565b93506111e66020860161111c565b925060408501359150606085013567ffffffffffffffff811115611208578182fd5b8501601f81018713611218578182fd5b611227878235602084016110a6565b91505092959194509250565b60008060408385031215611245578182fd5b61124e8361111c565b915060208301358015158114611262578182fd5b809150509250929050565b6000806040838503121561127f578182fd5b6112888361111c565b946020939093013593505050565b6000602082840312156112a7578081fd5b8135610b6181611855565b6000602082840312156112c3578081fd5b8151610b6181611855565b6000602082840312156112df578081fd5b813567ffffffffffffffff8111156112f5578182fd5b8201601f81018413611305578182fd5b61064f848235602084016110a6565b600060208284031215611325578081fd5b5035919050565b600081518084526113448160208601602086016117b1565b601f01601f19169290920160200192915050565b6000835161136a8184602088016117b1565b83519083019061137e8183602088016117b1565b01949350505050565b6001600160a01b0391909116815260200190565b6001600160a01b03858116825284166020820152604081018390526080606082018190526000906113ce9083018461132c565b9695505050505050565b901515815260200190565b600060208252610b61602083018461132c565b6020808252602d908201527f4552433732313a2063616c6c6572206973206e6f7420746f6b656e206f776e6560408201526c1c881bdc88185c1c1c9bdd9959609a1b606082015260800190565b60208082526032908201527f4552433732313a207472616e7366657220746f206e6f6e20455243373231526560408201527131b2b4bb32b91034b6b83632b6b2b73a32b960711b606082015260800190565b60208082526026908201527f4f776e61626c653a206e6577206f776e657220697320746865207a65726f206160408201526564647265737360d01b606082015260800190565b60208082526025908201527f4552433732313a207472616e736665722066726f6d20696e636f72726563742060408201526437bbb732b960d91b606082015260800190565b6020808252601c908201527f4552433732313a20746f6b656e20616c7265616479206d696e74656400000000604082015260600190565b60208082526024908201527f4552433732313a207472616e7366657220746f20746865207a65726f206164646040820152637265737360e01b606082015260800190565b60208082526019908201527f4552433732313a20617070726f766520746f2063616c6c657200000000000000604082015260600190565b60208082526029908201527f4552433732313a2061646472657373207a65726f206973206e6f7420612076616040820152683634b21037bbb732b960b91b606082015260800190565b6020808252602e908201527f45524337323155524953746f726167653a2055524920736574206f66206e6f6e60408201526d32bc34b9ba32b73a103a37b5b2b760911b606082015260800190565b6020808252818101527f4552433732313a206d696e7420746f20746865207a65726f2061646472657373604082015260600190565b6020808252818101527f4f776e61626c653a2063616c6c6572206973206e6f7420746865206f776e6572604082015260600190565b60208082526018908201527f4552433732313a20696e76616c696420746f6b656e2049440000000000000000604082015260600190565b60208082526021908201527f4552433732313a20617070726f76616c20746f2063757272656e74206f776e656040820152603960f91b606082015260800190565b6020808252603d908201527f4552433732313a20617070726f76652063616c6c6572206973206e6f7420746f60408201527f6b656e206f776e6572206f7220617070726f76656420666f7220616c6c000000606082015260800190565b90815260200190565b60005b838110156117cc5781810151838201526020016117b4565b8381111561054c5750506000910152565b6002810460018216806117f157607f821691505b6020821081141561181257634e487b7160e01b600052602260045260246000fd5b50919050565b600060001982141561183857634e487b7160e01b81526011600452602481fd5b5060010190565b634e487b7160e01b600052604160045260246000fd5b6001600160e01b0319811681146106f857600080fdfea2646970667358221220191bb2db3f33d8c0757cec890ab52848aea0aaf14b5e45bbe3960719c666926764736f6c63430008010033",
  "linkReferences": {},
  "deployedLinkReferences": {}
}